{
  "_format": "hh-sol-artifact-1",
  "contractName": "Bridge",
  "sourceName": "contracts/Bridge.sol",
  "abi": [
    {
      "inputs": [],
      "stateMutability": "nonpayable",
      "type": "constructor"
    },
    {
      "anonymous": false,
      "inputs": [
        {
          "indexed": true,
          "internalType": "address",
          "name": "user",
          "type": "address"
        },
        {
          "indexed": false,
          "internalType": "uint256",
          "name": "amount",
          "type": "uint256"
        },
        {
          "indexed": false,
          "internalType": "string",
          "name": "destinationChain",
          "type": "string"
        }
      ],
      "name": "TokensLocked",
      "type": "event"
    },
    {
      "anonymous": false,
      "inputs": [
        {
          "indexed": true,
          "internalType": "address",
          "name": "user",
          "type": "address"
        },
        {
          "indexed": false,
          "internalType": "uint256",
          "name": "amount",
          "type": "uint256"
        }
      ],
      "name": "TokensReleased",
      "type": "event"
    },
    {
      "inputs": [
        {
          "internalType": "address",
          "name": "token",
          "type": "address"
        },
        {
          "internalType": "uint256",
          "name": "amount",
          "type": "uint256"
        },
        {
          "internalType": "string",
          "name": "destinationChain",
          "type": "string"
        }
      ],
      "name": "lockTokens",
      "outputs": [],
      "stateMutability": "nonpayable",
      "type": "function"
    },
    {
      "inputs": [],
      "name": "owner",
      "outputs": [
        {
          "internalType": "address",
          "name": "",
          "type": "address"
        }
      ],
      "stateMutability": "view",
      "type": "function"
    },
    {
      "inputs": [
        {
          "internalType": "address",
          "name": "token",
          "type": "address"
        },
        {
          "internalType": "address",
          "name": "user",
          "type": "address"
        },
        {
          "internalType": "uint256",
          "name": "amount",
          "type": "uint256"
        }
      ],
      "name": "releaseTokens",
      "outputs": [],
      "stateMutability": "nonpayable",
      "type": "function"
    }
  ],
  "bytecode": "0x608060405234801561001057600080fd5b50336000806101000a81548173ffffffffffffffffffffffffffffffffffffffff021916908373ffffffffffffffffffffffffffffffffffffffff160217905550610ca4806100606000396000f3fe608060405234801561001057600080fd5b50600436106100415760003560e01c80638da5cb5b14610046578063b505c6ef14610064578063e0353eda14610080575b600080fd5b61004e61009c565b60405161005b91906105b0565b60405180910390f35b61007e60048036038101906100799190610641565b6100c0565b005b61009a600480360381019061009591906107da565b6102dc565b005b60008054906101000a900473ffffffffffffffffffffffffffffffffffffffff1681565b60008054906101000a900473ffffffffffffffffffffffffffffffffffffffff1673ffffffffffffffffffffffffffffffffffffffff163373ffffffffffffffffffffffffffffffffffffffff161461014e576040517f08c379a0000000000000000000000000000000000000000000000000000000008152600401610145906108a6565b60405180910390fd5b808373ffffffffffffffffffffffffffffffffffffffff166370a08231306040518263ffffffff1660e01b815260040161018891906105b0565b602060405180830381865afa1580156101a5573d6000803e3d6000fd5b505050506040513d601f19601f820116820180604052508101906101c991906108db565b101561020a576040517f08c379a000000000000000000000000000000000000000000000000000000000815260040161020190610954565b60405180910390fd5b8273ffffffffffffffffffffffffffffffffffffffff1663a9059cbb83836040518363ffffffff1660e01b8152600401610245929190610983565b6020604051808303816000875af1158015610264573d6000803e3d6000fd5b505050506040513d601f19601f8201168201806040525081019061028891906109e4565b508173ffffffffffffffffffffffffffffffffffffffff167fc7798891864187665ac6dd119286e44ec13f014527aeeb2b8eb3fd413df93179826040516102cf9190610a11565b60405180910390a2505050565b6000821161031f576040517f08c379a000000000000000000000000000000000000000000000000000000000815260040161031690610a78565b60405180910390fd5b818373ffffffffffffffffffffffffffffffffffffffff166370a08231336040518263ffffffff1660e01b815260040161035991906105b0565b602060405180830381865afa158015610376573d6000803e3d6000fd5b505050506040513d601f19601f8201168201806040525081019061039a91906108db565b10156103db576040517f08c379a00000000000000000000000000000000000000000000000000000000081526004016103d290610ae4565b60405180910390fd5b818373ffffffffffffffffffffffffffffffffffffffff1663dd62ed3e33306040518363ffffffff1660e01b8152600401610417929190610b04565b602060405180830381865afa158015610434573d6000803e3d6000fd5b505050506040513d601f19601f8201168201806040525081019061045891906108db565b1015610499576040517f08c379a000000000000000000000000000000000000000000000000000000000815260040161049090610b79565b60405180910390fd5b8273ffffffffffffffffffffffffffffffffffffffff166323b872dd3330856040518463ffffffff1660e01b81526004016104d693929190610b99565b6020604051808303816000875af11580156104f5573d6000803e3d6000fd5b505050506040513d601f19601f8201168201806040525081019061051991906109e4565b503373ffffffffffffffffffffffffffffffffffffffff167fc390dd353f9eaa5a7979e2f5c5cf79b8d2a766f8bd39418170605c24334ccf608383604051610562929190610c3e565b60405180910390a2505050565b600073ffffffffffffffffffffffffffffffffffffffff82169050919050565b600061059a8261056f565b9050919050565b6105aa8161058f565b82525050565b60006020820190506105c560008301846105a1565b92915050565b6000604051905090565b600080fd5b600080fd5b6105e88161058f565b81146105f357600080fd5b50565b600081359050610605816105df565b92915050565b6000819050919050565b61061e8161060b565b811461062957600080fd5b50565b60008135905061063b81610615565b92915050565b60008060006060848603121561065a576106596105d5565b5b6000610668868287016105f6565b9350506020610679868287016105f6565b925050604061068a8682870161062c565b9150509250925092565b600080fd5b600080fd5b6000601f19601f8301169050919050565b7f4e487b7100000000000000000000000000000000000000000000000000000000600052604160045260246000fd5b6106e78261069e565b810181811067ffffffffffffffff82111715610706576107056106af565b5b80604052505050565b60006107196105cb565b905061072582826106de565b919050565b600067ffffffffffffffff821115610745576107446106af565b5b61074e8261069e565b9050602081019050919050565b82818337600083830152505050565b600061077d6107788461072a565b61070f565b90508281526020810184848401111561079957610798610699565b5b6107a484828561075b565b509392505050565b600082601f8301126107c1576107c0610694565b5b81356107d184826020860161076a565b91505092915050565b6000806000606084860312156107f3576107f26105d5565b5b6000610801868287016105f6565b93505060206108128682870161062c565b925050604084013567ffffffffffffffff811115610833576108326105da565b5b61083f868287016107ac565b9150509250925092565b600082825260208201905092915050565b7f4f6e6c79206f776e65722063616e2072656c6561736520746f6b656e73000000600082015250565b6000610890601d83610849565b915061089b8261085a565b602082019050919050565b600060208201905081810360008301526108bf81610883565b9050919050565b6000815190506108d581610615565b92915050565b6000602082840312156108f1576108f06105d5565b5b60006108ff848285016108c6565b91505092915050565b7f496e73756666696369656e742062616c616e636520696e20636f6e7472616374600082015250565b600061093e602083610849565b915061094982610908565b602082019050919050565b6000602082019050818103600083015261096d81610931565b9050919050565b61097d8161060b565b82525050565b600060408201905061099860008301856105a1565b6109a56020830184610974565b9392505050565b60008115159050919050565b6109c1816109ac565b81146109cc57600080fd5b50565b6000815190506109de816109b8565b92915050565b6000602082840312156109fa576109f96105d5565b5b6000610a08848285016109cf565b91505092915050565b6000602082019050610a266000830184610974565b92915050565b7f416d6f756e74206d7573742062652067726561746572207468616e207a65726f600082015250565b6000610a62602083610849565b9150610a6d82610a2c565b602082019050919050565b60006020820190508181036000830152610a9181610a55565b9050919050565b7f496e73756666696369656e742062616c616e6365000000000000000000000000600082015250565b6000610ace601483610849565b9150610ad982610a98565b602082019050919050565b60006020820190508181036000830152610afd81610ac1565b9050919050565b6000604082019050610b1960008301856105a1565b610b2660208301846105a1565b9392505050565b7f416c6c6f77616e6365206e6f7420736574000000000000000000000000000000600082015250565b6000610b63601183610849565b9150610b6e82610b2d565b602082019050919050565b60006020820190508181036000830152610b9281610b56565b9050919050565b6000606082019050610bae60008301866105a1565b610bbb60208301856105a1565b610bc86040830184610974565b949350505050565b600081519050919050565b60005b83811015610bf9578082015181840152602081019050610bde565b60008484015250505050565b6000610c1082610bd0565b610c1a8185610849565b9350610c2a818560208601610bdb565b610c338161069e565b840191505092915050565b6000604082019050610c536000830185610974565b8181036020830152610c658184610c05565b9050939250505056fea26469706673582212204ec14d494ae557787ed21dfef35db4cb142604d67f114547dc38edf3c78d441b64736f6c63430008140033",
  "linkReferences": {},
  "deployedLinkReferences": {}
}